:0A02620068656C6C2C776F72640005
:100142007522007523011202337BFF7A0279627DE8
:10015200017F021201AA0523E523700205227FE82E
:100162007E0312021E750C03AB23AA227D017F01BE
:050172001201EB80E129
:06024700C2A58F80D2A7C2
:08024D007F027EEFDEFEDFFC04
:010255002286
:0A026C00C2A6120247C2A702024D0B
:1001CD00CFCDCFCECCCE1200427C007D0A120042A4
:0401DD00ED2430FFDE
:0A01E100D2A6120247C2A702024D87
:10020800AE07BE0104ED148006BE0209ED243F448A
:0602180080FF12026C22BF
:100233007F3812026C7F0C12026C7F0612026C7FF5
:040243000102026C46
:0A027600AC03120208AF040201E11C
:0601AA008B088A09890A96
:1001B000120208E4FDAB08AA09A90A8D8275830022
:0C01C000120003FF60061201E10D80E94F
:0101CC002210
:0C0177007F0AEA24FFFDE434FFFC7E0058
:080183008E0D8F0E8C0F8D1004
:10018B007F017E00E4FBEBC39510E50F6480F874F0
:0E019B008098500AAC0DAD0E1200300B80E8BB
:0101A9002233
:0401EB008A0A8B0BE6
:1001EF00120208AA0CEAD39400400D120177AC0A50
:0801FF00AD0B1201CD1A80EDD9
:0102070022D4
:10009700120208C3EA64809480400B7F2B1201E1AF
:1000A7008A168B17800E7F2D1201E1C3E49BF5178B
:1000B700E49AF516AA15EAD39400400D120177AC1D
:0900C70016AD171201CD1A80EDEF
:0100D000220D
:0400D1008A1A8B1BE1
:1000D500120208AA1CEAD3940040297F1012017964
:1000E500AC1AAD1BCFCDCFCECCCE120042EF540F04
:1000F500FEC3940AEE5004243080022437FF120117
:04010500E11A80D1AA
:0101090022D3
:04010A008A1F8B209D
:10010E00120208AA21EAD394004028EA24FFFDE453
:10011E0034FFFC7F027E00120183AC1FAD20CFCDD9
:10012E00CFCECCCE120042EF54012430FF1201E1AB
:03013E001A80D252
:01014100229B
:10021E00EF1FAC0670011E4C600A7D027CC7DCFE2F
:04022E00DDFC80EC87
:0102320022A9
:03000000020256A3
:0C025600787FE4F6D8FD75812302014298
:10000300BB010CE58229F582E5833AF583E02250B2
:1000130006E92582F8E622BBFE06E92582F8E222FC
:0D002300E58229F582E5833AF583E4932216
:10003000EF8DF0A4A8F0CF8CF0A428CE8DF0A42EE4
:02004000FE229E
:10004200BC000BBE0029EF8DF084FFADF022E4CCA2
:10005200F875F008EF2FFFEE33FEEC33FCEE9DEC6B
:10006200984005FCEE9DFE0FD5F0E9E4CEFD22EDB1
:10007200F8F5F0EE8420D21CFEADF075F008EF2FFB
:10008200FFED33FD4007985006D5F0F222C398FDEC
:050092000FD5F0EA2289
:00000001FF
