:10035600EF1FAC0670011E4C600A7D027CC7DCFEF6
:04036600DDFC80EC4E
:01036A002270
:06037F00C2A58F80D2A789
:080385007F027EEFDEFEDFFCCB
:01038D00224D
:0A039C00C2A612037FC2A702038568
:10030500CFCDCFCECCCE1201007C007D0A120100EC
:04031500ED2430FFA4
:0A031900D2A612037FC2A7020385DB
:10034000AE07BE0104ED148006BE0209ED243F4451
:0603500080FF12039C2255
:10036B007F3812039C7F0C12039C7F0612039C7F29
:04037B000102039CDC
:0A03A600AC03120340AF0402031978
:0602BF008B088A09890A80
:1002C500120340E4FDAB08AA09A90A8D82758300D3
:0C02D5001200C1FF60061203190D80E941
:0102E10022FA
:0C028C007F0AEA24FFFDE434FFFC7E0042
:080298008E0D8F0E8C0F8D10EE
:1002A0007F017E00E4FBEBC39510E50F6480F874DA
:0E02B0008098500AAC0DAD0E1200EE0B80E8E7
:0102BE00221D
:040323008A0A8B0BAC
:10032700120340AA0CEAD39400400D12028CAC0AC7
:08033700AD0B1203051A80ED65
:01033F00229B
:1001E100120340C3EA64809480400B7F2B120319F1
:1001F1008A168B17800E7F2D120319C3E49BF51706
:10020100E49AF516AA15EAD39400400D12028CACBB
:0902110016AD171203051A80ED69
:01021A0022C1
:04021B008A1A8B1B95
:10021F00120340AA1CEAD3940040297F1012028EC9
:10022F00AC1AAD1BCFCDCFCECCCE120100EF540FF9
:10023F00FEC3940AEE5004243080022437FF1203C9
:04024F00191A80D127
:010253002288
:040254008A1F8B2052
:10025800120340AA21EAD394004028EA24FFFDE4CF
:1002680034FFFC7F027E00120298AC1FAD20CFCD78
:10027800CFCECCCE120100EF54012430FF12031967
:030288001A80D207
:01028B002250
:1002E20068656C6C6F2C504E4750413100436C6F07
:1002F200636B3A00436C6F636B20526573657420C5
:03030200202000B8
:0D038E0001260001230001220002240000CE
:1000030012036B7BFF7A0279E27D017F011202BF4B
:100013007F017E001203560525E52570020524C3E2
:1000230094E8E52494034072E4F524F5250522E5DC
:1000330022943C4019E4F5220523E523943C400E29
:10004300E4F5230526E52694184003E4F5267BFF13
:100053007A0279EF7D017F021202BFE526FB7A0067
:10006300750C027D077F021203237B3A7D097F0211
:100073001203A6E523FB7A00750C027D0A7F0212A8
:1000830003237B3A7D0C7F021203A6E522FB7A0051
:10009300750C027D0D7F0212032330B1030200139E
:1000A300E4F526F523F5227BFF7A0279F67D017FBD
:0E00B300021202BF7FF47E01120356020013F8
:03000000020155A5
:0C015500787FE4F6D8FD75812602019C3D
:1000C100BB010CE58229F582E5833AF583E02250F4
:1000D10006E92582F8E622BBFE06E92582F8E2223E
:0D00E100E58229F582E5833AF583E4932258
:1000EE00EF8DF0A4A8F0CF8CF0A428CE8DF0A42E26
:0200FE00FE22E0
:10010000BC000BBE0029EF8DF084FFADF022E4CCE3
:10011000F875F008EF2FFFEE33FEEC33FCEE9DECAC
:10012000984005FCEE9DFE0FD5F0E9E4CEFD22EDF2
:10013000F8F5F0EE8420D21CFEADF075F008EF2F3C
:10014000FFED33FD4007985006D5F0F222C398FD2D
:050150000FD5F0EA22CA
:10016100020003E493A3F8E493A34003F68001F2B1
:1001710008DFF48029E493A3F85407240CC8C3339F
:10018100C4540F4420C8834004F456800146F6DF6E
:10019100E4800B010204081020408090038EE47E6D
:1001A100019360BCA3FF543F30E509541FFEE49363
:1001B100A360010ECF54C025E060A840B8E493A32A
:1001C100FAE493A3F8E493A3C8C582C8CAC583CA55
:1001D100F0A3C8C582C8CAC583CADFE9DEE780BE0D
:01039B000061
:00000001FF
