:10031200EF1FAC0670011E4C600A7D027CC7DCFE3A
:04032200DDFC80EC92
:0103260022B4
:06034F00C2A58F80D2A7B9
:080355007F027EEFDEFEDFFCFB
:01035D00227D
:0A036C00C2A612034FC2A7020355F8
:1002C100CFCDCFCECCCE1200DF7C007D0A1200DF75
:0402D100ED2430FFE9
:0A02D500D2A612034FC2A702035580
:1002FC00AE07BE0104ED148006BE0209ED243F4496
:06030C0080FF12036C22C9
:100327007F3812036C7F0C12036C7F0612036C7FFD
:040337000102036C50
:0A037600AC031202FCAF040202D532
:06029E008B088A09890AA1
:1002A4001202FCE4FDAB08AA09A90A8D8275830039
:0C02B4001200A0FF60061202D50D80E9C8
:0102C000221B
:0C026B007F0AEA24FFFDE434FFFC7E0063
:080277008E0D8F0E8C0F8D100F
:10027F007F017E00E4FBEBC39510E50F6480F874FB
:0E028F008098500AAC0DAD0E1200CD0B80E829
:01029D00223E
:0402DF008A0A8B0BF1
:1002E3001202FCAA0CEAD39400400D12026BAC0A72
:0802F300AD0B1202C11A80EDEF
:0102FB0022E0
:1001C0001202FCC3EA64809480400B7F2B1202D59C
:1001D0008A168B17800E7F2D1202D5C3E49BF5176C
:1001E000E49AF516AA15EAD39400400D12026BACFE
:0901F00016AD171202C11A80EDD0
:0101F90022E3
:0401FA008A1A8B1BB7
:1001FE001202FCAA1CEAD3940040297F1012026D51
:10020E00AC1AAD1BCFCDCFCECCCE1200DFEF540F3C
:10021E00FEC3940AEE5004243080022437FF1202EB
:04022E00D51A80D18C
:0102320022A9
:040233008A1F8B2073
:100237001202FCAA21EAD394004028EA24FFFDE435
:1002470034FFFC7F027E00120277AC1FAD20CFCDBA
:10025700CFCECCCE1200DFEF54012430FF1202D5EF
:030267001A80D228
:01026A002271
:10033B0068656C6C6F2C504E4750413100436C6FAD
:04034B00636B3A00A6
:0D035E0001260001230001220002240000FE
:100003001203277BFF7A03793B7D017F0112029E56
:100013007F017E001203120525E52570020524C326
:1000230094E8E524940340E8E4F524F5250522E566
:1000330022943C4019E4F5220523E523943C400E29
:10004300E4F5230526E52694184003E4F5267BFF13
:100053007A0379487D017F0212029EE526FB7A002E
:10006300750C027D077F021202DF7B3A7D097F0256
:10007300120376E523FB7A00750C027D0A7F0212D8
:1000830002DF7B3A7D0C7F02120376E522FB7A00C6
:0D009300750C027D0D7F021202DF020013CA
:03000000020134C6
:0C013400787FE4F6D8FD75812602017B7F
:1000A000BB010CE58229F582E5833AF583E0225015
:1000B00006E92582F8E622BBFE06E92582F8E2225F
:0D00C000E58229F582E5833AF583E4932279
:1000CD00EF8DF0A4A8F0CF8CF0A428CE8DF0A42E47
:0200DD00FE2201
:1000DF00BC000BBE0029EF8DF084FFADF022E4CC05
:1000EF00F875F008EF2FFFEE33FEEC33FCEE9DECCE
:1000FF00984005FCEE9DFE0FD5F0E9E4CEFD22ED14
:10010F00F8F5F0EE8420D21CFEADF075F008EF2F5D
:10011F00FFED33FD4007985006D5F0F222C398FD4E
:05012F000FD5F0EA22EB
:10014000020003E493A3F8E493A34003F68001F2D2
:1001500008DFF48029E493A3F85407240CC8C333C0
:10016000C4540F4420C8834004F456800146F6DF8F
:10017000E4800B010204081020408090035EE47EBE
:10018000019360BCA3FF543F30E509541FFEE49384
:10019000A360010ECF54C025E060A840B8E493A34B
:1001A000FAE493A3F8E493A3C8C582C8CAC583CA76
:1001B000F0A3C8C582C8CAC583CADFE9DEE780BE2E
:01036B000091
:00000001FF
