:10010C0000000000007C1211127C7F494949363EE8
:10011C00414141227F4141221C7F494949417F098C
:10012C000909013E4149497A7F0808087F00417F4F
:10013C0041002040413F017F081422417F40404054
:10014C00407F020C027F7F0408107F3E4141413EFC
:10015C007F090909063E4151215E7F09192946464E
:10016C004949493101017F01013F4040403F1F2077
:10017C0040201F3F4030403F631408146303047851
:10018C0004036151494543504C4541534520574167
:10019C00495400504C4541534520424F4152440074
:1001AC00554E4445522052455041495200444F4F00
:0D01BC005220434C4F534544000B0C0C0BDC
:0A02FA0008080193019F01AC01B94F
:1002E600EFC39441400BEFD3945A5005EF24C0FF5F
:0402F600227F002241
:10000300E4F511751201F513F51412030520B1146B
:100013007F147E001202D130B1FD7F147E001202E4
:10002300D1E4F51120B0147F147E001202D130B058
:10003300FD7F147E001202D175110120B2147F14CA
:100043007E001202D130B2FD7F147E001202D17500
:10005300110220B3147F147E001202D130B3FD7F4E
:10006300147E001202D1751103E511651260088533
:100073001112E4F513F514E51125E02408F8E6FE62
:1000830008E68E832513F582E43583F583E493FF35
:100093001202E6EF75F005A4240CF9740135F0752E
:1000A30015FFF5168917E4FDFCFF1202AFE4FDFC12
:1000B3007F011202AFE4F510E5102402FFAB15AA8D
:1000C30016A917851082758300120282FD7C001227
:1000D30002AF0510E510C3940540DDE4FDFC7F0786
:1000E3001202AF0514E514D3940F5003020010E479
:1000F300F5140513E5119001C593FFE5139F500314
:09010300020010E4F513020010E3
:1002D100EF1FAC0670011E4C600A7D027CEFDCFE54
:0402E100DDFC80ECD4
:0102E50022F6
:02025500AD07F3
:10025700E4FB7E007480A803088006CEA2E713CED5
:1002670013D8F8FFEDF582EF558224FF92B4D2B68A
:0A027700C2B60BBB08DCD2B5C2B55D
:01028100225A
:05030500C2B6C2B522E2
:1002AF00AA07AF05120255AF02A807748008800293
:1002BF00C313D8FCF4F5807F017E001202D1758044
:0202CF00FF220C
:030000000201C931
:0C01C900787FE4F6D8FD75811702021063
:10028200BB010CE58229F582E5833AF583E0225031
:1002920006E92582F8E622BBFE06E92582F8E2227B
:0D02A200E58229F582E5833AF583E4932295
:1001D500020003E493A3F8E493A34003F68001F23D
:1001E50008DFF48029E493A3F85407240CC8C3332B
:1001F500C4540F4420C8834004F456800146F6DFFA
:10020500E4800B01020408102040809002FAE47E8D
:10021500019360BCA3FF543F30E509541FFEE493EE
:10022500A360010ECF54C025E060A840B8E493A3B5
:10023500FAE493A3F8E493A3C8C582C8CAC583CAE0
:10024500F0A3C8C582C8CAC583CADFE9DEE780BE98
:0103040000F8
:00000001FF
