:1002E6003A30303A30303A303000636C6F636B002E
:0D02F60048454C4C4F2C504E4750413100B4
:10016C00C2A41203621203207BFF7A0279E67D0699
:10017C007F021202A57BFF7A0279F07D017F0212C9
:10018C0002A57BFF7A0279F67D017F011202A5752B
:10019C000C02AB18AA177D0D7F02120303750C021B
:1001AC00AB16AA157D0A7F02120303750C02AB1461
:0B01BC00AA137D077F0212030380D40A
:03000B000200A24E
:0400A200C0E0C0D02A
:1000A600758A66758CFC0512E51270020511C394FB
:1000B600E8E5119403403A7511007512000518E53C
:1000C6001870020517943CE517940040240516E5C0
:1000D6001670020515751700751800943CE5159401
:1000E60000400E0514E5147002051375150075160B
:1000F60000E51830E006C2A1D2A28004D2A1C2A2B5
:05010600D0D0D0E03272
:100320005389F0438901758A66758CFCC28DD2A908
:07033000D2AFC2B9D28C224A
:10034D00EF1FAC0670011E4C600A7D027CC7DCFEFF
:04035D00DDFC80EC57
:010361002279
:06037600C2A58F80D2A792
:08037C007F027EEFDEFEDFFCD4
:010384002256
:0A039100C2A6120376C2A702037C85
:1002C800CFCDCFCECCCE12004D7C007D0A12004D92
:0402D800ED2430FFE2
:0A02DC00D2A6120376C2A702037C2B
:10033700AE07BE0104ED148006BE0209ED243F445A
:0603470080FF1203912269
:100362007F381203917F0C1203917F061203917F53
:0403720001020391F0
:0A039B00AC03120337AF040202DCCA
:0602A5008B088A09890A9A
:1002AB00120337E4FDAB08AA09A90A8D82758300F6
:0C02BB0012000EFF60061202DC0D80E94C
:0102C7002214
:0C0272007F0AEA24FFFDE434FFFC7E005C
:08027E008E0D8F0E8C0F8D1008
:100286007F017E00E4FBEBC39510E50F6480F874F4
:0E0296008098500AAC0DAD0E12003B0B80E8B4
:0102A4002237
:040303008A0A8B0BCC
:10030700120337AA0CEAD39400400D120272AC0A0A
:08031700AD0B1202C81A80EDC3
:01031F0022BB
:1001C700120337C3EA64809480400B7F2B1202DC52
:1001D7008A1E8B1F800E7F2D1202DCC3E49BF51F46
:1001E700E49AF51EAA1DEAD39400400D120272ACE0
:0901F7001EAD1F1202C81A80EDB2
:0102000022DB
:040201008A228B239F
:10020500120337AA24EAD3940040297F10120274FE
:10021500AC22AD23CFCDCFCECCCE12004DEF540FB7
:10022500FEC3940AEE5004243080022437FF1202E4
:04023500DC1A80D17E
:0102390022A2
:04023A008A278B285C
:10023E00120337AA29EAD394004028EA24FFFDE4EA
:10024E0034FFFC7F027E0012027EAC27AD28CFCD9C
:10025E00CFCECCCE12004DEF54012430FF1202DC73
:03026E001A80D221
:01027100226A
:10010B00E4F52A20B1137F14FE12034D30B1FD7FAD
:10011B00147E0012034D752A0120B0147F147E004B
:10012B0012034D30B0FD7F147E0012034D752A0271
:10013B0020B2147F147E0012034D30B2FD7F147E6B
:10014B000012034D752A0320B3147F147E00120393
:10015B004D30B3FD7F147E0012034D752A04AF2A78
:01016B002271
:0300000002038573
:0C038500787FE4F6D8FD75812A02016C37
:10000E00BB010CE58229F582E5833AF583E02250A7
:10001E0006E92582F8E622BBFE06E92582F8E222F1
:0D002E00E58229F582E5833AF583E493220B
:10003B00EF8DF0A4A8F0CF8CF0A428CE8DF0A42ED9
:02004B00FE2293
:10004D00BC000BBE0029EF8DF084FFADF022E4CC97
:10005D00F875F008EF2FFFEE33FEEC33FCEE9DEC60
:10006D00984005FCEE9DFE0FD5F0E9E4CEFD22EDA6
:10007D00F8F5F0EE8420D21CFEADF075F008EF2FF0
:10008D00FFED33FD4007985006D5F0F222C398FDE1
:05009D000FD5F0EA227E
:00000001FF
