:1005ED0020202020202020202020202020202020FE
:1005FD0000416C61726D3A20484947482120202006
:10060D0000416C61726D3A204D4944444C452020A7
:10061D0000416C61726D3A204C4F572020202020F4
:10062D000054656D70204E6F726D616C202020201E
:10063D000054656D703A00496E697469616C697A30
:07064D00696E672E2E2E00DE
:060A7100E4FF0FBF3CFC96
:010A7700225C
:100654008F0B8E0A8D098C08E4FFFE7DF07C41AB84
:100664000BAA0AA909A8081201A960094007C2A097
:10067400C2A1C2A222E4FFFE7DC87C41AB0BAA0A40
:10068400A909A8081201A960094007C2A0C2A1D201
:10069400A222E4FFFE7DA07C41AB0BAA0AA909A813
:1006A400081201A960064004C2A08002D2A0D2A10F
:0306B400D2A222AD
:0807CE008F0B8E0A8D098C08C7
:1007D600E4FFFE7DF07C41AB0BAA0AA909A808122A
:1007E60001A960134011E4FEC2A5120A71D2A51236
:0907F6000A710EBE64F222D2A5C4
:0107FF0022D7
:100572008F0B8E0A8D098C087BFF7A0579ED7D0140
:100582007F021208A8E4FFFE7DF07C41AB0BAA0AB1
:10059200A909A8081201A9600A40087BFF7A057917
:1005A200FE8040E4FFFE7DC87C41AB0BAA0AA9098C
:1005B200A8081201A9600A40087BFF7A06790E801A
:1005C20022E4FFFE7DA07C41AB0BAA0AA909A80880
:1005D2001201A97BFF600840067A06791E80047A20
:0B05E20006792E7D017F021208A8227E
:10046200120A257FE87E031209EDD2A0D2A1D2A200
:10047200D2A5120A027BFF7A06793E7D017F011224
:1004820008A87BFF7A0679447D017F021208A87FC3
:10049200F47E011209ED120A251208308F148E1310
:1004A2008D128C11E4FFFEFDFCAB14AA13A912A855
:1004B200111201A9501E7B2D7D067F01120A54AF35
:1004C20014AE13AD12AC111202228F188E178D16B4
:1004D2008C1580157B2B7D067F01120A548514181A
:1004E200851317851216851115AF18AE17AD16AC08
:1004F20015120271AB07AA06750C037D077F011264
:1005020009257B2E7D0A7F01120A54E4FFFE7DC875
:100512007C42AB18AA17A916A81512000312027181
:10052200E47B64FAF9F81203C2750C027D0B7F01B9
:100532001209257BDF7D0D7F01120A547B437D0E5C
:100542007F01120A54AF14AE13AD12AC111206544D
:10055200AF14AE13AD12AC11120572AF14AE13ADDF
:1005620012AC111207CE7FC87E001209ED02049868
:1009ED00EF1FAC0670011E4C600A7D027CEFDCFE31
:0409FD00DDFC80ECB1
:010A010022D2
:060A1600C2A58F80D2A7EB
:080A1C007F027EEFDEFEDFFC2D
:010A240022AF
:0A0A4A00C2A6120A16C2A7020A1C77
:1008CB00CFCDCFCECCCE1203317C007D0A120331BB
:0408DB00ED2430FFD9
:0A08DF00D2A6120A16C2A7020A1CD4
:1009AB00AE07BE0104ED148006BE0209ED243F44E0
:0609BB0080FF120A4A222F
:100A02007F38120A4A7F0C120A4A7F06120A4A7F6C
:040A120001020A4A89
:0A0A5400AC031209ABAF040208DF87
:0608A8008B0C8A0D890E85
:1008AE001209ABE4FDAB0CAA0DA90E8D8275830067
:0C08BE001202F2FF60061208DF0D80E954
:0108CA00220B
:0C079B007F0AEA24FFFDE434FFFC7E002E
:0807A7008E0D8F0E8C0F8D10DA
:1007AF007F017E00E4FBEBC39510E50F6480F874C6
:0E07BF008098500AAC0DAD0E12031F0B80E89F
:0107CD002209
:040925008A0A8B0BA4
:100929001209ABAA0CEAD39400400D12079BAC0A3A
:08093900AD0B1208CB1A80ED92
:010941002293
:1006B7001209ABC3EA64809480400B7F2B1208DFDA
:1006C7008A1E8B1F800E7F2D1208DFC3E49BF51F48
:1006D700E49AF51EAA1DEAD39400400D12079BACBD
:0906E7001EAD1F1208CB1A80EDB4
:0106F00022E7
:0406F1008A228B23AB
:1006F5001209ABAA24EAD3940040297F1012079D62
:10070500AC22AD23CFCDCFCECCCE120331EF540FDB
:10071500FEC3940AEE5004243080022437FF1208E9
:04072500DF1A80D186
:0107290022AD
:040763008A278B282E
:100767001209ABAA29EAD394004028EA24FFFDE442
:1007770034FFFC7F027E001207A7AC27AD28CFCD40
:10078700CFCECCCE120331EF54012430FF1208DF55
:030797001A80D2F3
:01079A00223C
:100884008F2A8C2B8D2C120A687FA012085B120A07
:1008940032AF2A12085B120A32AF2C12085B120A1A
:0408A40032020A789A
:020800008F3037
:10080200120A687FA012085B120A32AF3012085B2C
:10081200120A32120A687FA112085B120A32120807
:0D082200E98F317F01120A5E120A78AF31B2
:01082F0022A6
:090A6800D2A0D2A1C2A0C2A122B9
:070A7800C2A0D2A1D2A0220E
:02085B00AD07E7
:10085D00E4FB7E007480A803088006CEA2E713CEC9
:10086D0013D8F8FFEDF582EF558224FF92A0D2A1A7
:06087D00C2A10BBB08DC68
:010883002252
:1008E900E4FFD2A0FED2A130A00DA8067480088032
:0D08F90002C313D8FC4207C2A10EBE08E8DE
:0109060022CE
:0A0A5E00EF24FF92A0D2A1C2A12252
:0B0A3200D2A0D2A1A2A0E433FFC2A119
:010A3D002296
:0D0A25001209077FCC12097B7F4402097B78
:100830001209077FCC12097B7FBE12097B12094285
:100840008F08120942EFFEE508FFFDAC06EC12022C
:0B08500038E4FBFA7980784102010CCB
:10090700C2AFD2B7C2B77FF7DFFED2B77F20DFFE15
:0D091700A2B7E433FE7FF7DFFED2AFAF06DC
:0109240022B0
:1009C100C2AFC2B77E04DEFEEF24FF92B77E18DE0F
:0509D100FED2B7D2AF19
:0109D60022FE
:10095F00C2AFC2B77F02DFFED2B77F02DFFEA2B700
:0B096F00E433FE7F18DFFED2AFAF06BE
:01097A00225A
:02097B00AD07C6
:10097D00E4FCA8047401088002C333D8FC5DFF12A7
:06098D0009C10CBC08ECDE
:010993002241
:10094200E4FDFC12095FEF600DA804740108800247
:0C095200C333D8FC42050CBC08E9AF051B
:01095E002276
:050A7F00E4AF2FF52F8C
:010A8400224F
:1009D700E4FF20B1010F20B0027F0220B2027F03A3
:0509E70020B3027F04B3
:0109EC0022E8
:10072A00852D2E1209D78F2DE52EB40107E52D70E0
:10073A0003752F01E52EB40207E52D7003752F020C
:10074A00E52EB40307E52D7003752F03E52EB404D7
:08075A0007E52D7003752F0463
:010762002274
:100994005389F0438901758A18758CFCC28DD28CF9
:0709A400D2A9D2AFC2B922B3
:10000300EC4D6011E8497017ED33EC3304600DE4F7
:10001300FCFFFEFD22E933E8330470F80202DD122F
:1000230002A858046009E4CC248150062850090230
:1000330002E72840030202E4C0E0EB4A7044B980BF
:1000430006D0E0FB0202D3EF4E701CBD8008EBFF2D
:10005300EAFEE9FD80EBE98DF0A4FEE5F00200EC99
:10006300E9CDF9EAFEEBFFEF89F0A4FCE5F0CE89D8
:10007300F0A42EFFE435F0CD89F0A42DFEE435F095
:100083008067EF4E7005BD80D780C3EF8BF0A4ACC3
:10009300F0EE8BF0A42CFCE435F0F8EF8AF0A42CFE
:1000A300E5F038FCE433CB8DF0A42CFCE5F03BF811
:1000B300EE8AF0A42CFCE5F038F8E433CF89F0A401
:1000C3002CFCE5F038CF3400CE89F0A42FFFE5F007
:1000D3003EFEE433C98DF0A42EFEE5F039CD8AF05F
:1000E300A42FFFE5F03EFEE43DFD33D0E0FB5007D7
:1000F3000BBB000F0202E7EC2CFCEF33FFEE33FEE9
:06010300ED33FD0202BF16
:100109000202E7EC5D046005E8590470030202DDB0
:100119001202A8580460F6EC4860F2EC7004FDFE87
:10012900FF22C860DB2481C85009C39860025006C9
:100139000202E49850CAF582E9294B4A7005AB825C
:100149000202D375F0007C1A7880C3EF9BEE9AED1A
:1001590099400DC3EF9BFFEE9AFEED99FDE842F041
:10016900DC23ACF0D0E0FFD0E0FED0E0FDAB822094
:10017900E7101BEB60BAEC2CFCEF33FFEE33FEED1E
:1001890033FD0202BFE803F830E705C0F075F0005F
:10019900EF2FFFEE33FEED33FD40B830E7C280AA02
:1001A90074F8CC6480CCC86480C8F58204604FC3FD
:1001B900EB9FF5F0EA9E42F0E99D42F0E89C45F09C
:1001C900603C501DE5825FFFE582D313CB5BCBF426
:1001D9002B5582FB50280ABA002409B9002008804F
:1001E9001DE5825BFBE582D313CF5FCFF4C3132FE9
:1001F9005582FF50090EBE00050DBD00010CC3EB71
:100209009FF5F0EA9E42F0E99D42F0E89C45F060D6
:0902190007CC4820E701B3EC22F8
:10022200ED33EC33600A047003BD8004ECB2E7FCEA
:0102320022A9
:1002330075F020800E75F010800575F0087D007E46
:10024300007F003392D530D503120454EC334010B1
:10025300EF33FFEE33FEED33FDEC33FCD5F0ED224F
:0E026300E5F0247EA2D513CC92E7CDCEFF228B
:10027100EDD2E7CD33EC3392D524814006E4FFFE85
:10028100FDFC22FCE4CFCECDCC24E0501174FF80E4
:10029100EDC3CC13CCCD13CDCE13CECF13CF047081
:0702A100F030D5DE02045429
:1002A800E9D2E7C933E833F892D5EDD2E7CD33EC9C
:0702B80033FC5002B2D52215
:1002BF00EC30E7100FBF000C0EBE00080DBD0004A0
:1002CF000BEB6014A2D5EB13FCED92E7FD2274FF4C
:1002DF00FCFDFEFF22E480F8A2D574FF13FC7D80A5
:0302EF00E480EFB9
:03000000020A3EB3
:0C0A3E00787FE4F6D8FD75813102046277
:1002F200BB010CE58229F582E5833AF583E02250C1
:1003020006E92582F8E622BBFE06E92582F8E2220A
:0D031200E58229F582E5833AF583E4932224
:10031F00EF8DF0A4A8F0CF8CF0A428CE8DF0A42EF2
:02032F00FE22AC
:10033100BC000BBE0029EF8DF084FFADF022E4CCB0
:10034100F875F008EF2FFFEE33FEEC33FCEE9DEC79
:10035100984005FCEE9DFE0FD5F0E9E4CEFD22EDBF
:10036100F8F5F0EE8420D21CFEADF075F008EF2F09
:10037100FFED33FD4007985006D5F0F222C398FDFA
:050381000FD5F0EA2297
:1003860075F008758200EF2FFFEE33FECD33CDCC2E
:1003960033CCC58233C5829BED9AEC99E5829840B1
:1003A6000CF582EE9BFEED9AFDEC99FC0FD5F0D68E
:1003B600E4CEFBE4CDFAE4CCF9A88222B800C1B9B8
:1003C6000059BA002DEC8BF084CFCECDFCE5F0CBF6
:1003D600F97818EF2FFFEE33FEED33FDEC33FCEB2F
:1003E60033FB10D703994004EB99FB0FD8E5E4F9EA
:1003F600FA227818EF2FFFEE33FEED33FDEC33FCD7
:10040600C933C910D7059BE99A4007EC9BFCE99ACA
:10041600F90FD8E0E4C9FAE4CCFB2275F010EF2F0F
:10042600FFEE33FEED33FDCC33CCC833C810D7070F
:100436009BEC9AE899400AED9BFDEC9AFCE899F84A
:0E0446000FD5F0DAE4CDFBE4CCFAE4C8F922DD
:0E045400C3E49FFFE49EFEE49DFDE49CFC22B9
:00000001FF
