:100285003A30303A30303A303000636F6C636B008F
:0D02950048454C4C4F2C504E475041310015
:10010B00C2A41202FE1202EA7BFF7A0279857D06F7
:10011B007F021202447BFF7A02798F7D017F0212EC
:10012B0002447BFF7A0279957D017F0112024475AF
:10013B001502AB10AA0F7D0D7F021202A2751502DC
:10014B00AB0EAA0D7D0A7F021202A2751502AB0C33
:0B015B00AA0B7D077F021202A280D4D5
:03000B000200A24E
:0400A200C0E0C0D02A
:1000A600758A66758CFC0509E50970020508C39416
:1000B60010E5089427403A7508007509000510E513
:1000C600107002050F943CE50F94004024050EE5E0
:1000D6000E7002050D750F00751000943CE50D9429
:1000E60000400E050CE50C7002050B750D00750E33
:1000F60000E51030E006C2A1D2A28004D2A1C2A2BD
:05010600D0D0D0E03272
:1002EA00D2A9D2AF5389F0758A66758CFCC28DD2B9
:0402FA008CC2B922D7
:1002D500EF1FAC0670011E4C600A7D027CC7DCFE78
:0402E500DDFC80ECD0
:0102E90022F2
:06031200C2A58F80D2A7F6
:080318007F027EEFDEFEDFFC38
:0103200022BA
:0A032D00C2A6120312C2A7020318B1
:10026700CFCDCFCECCCE12004D7C007D0A12004DF3
:04027700ED2430FF43
:0A027B00D2A6120312C2A702031854
:1002BF00AE07BE0104ED148006BE0209ED243F44D3
:0602CF0080FF12032D2246
:1002FE007F3812032D7F0C12032D7F0612032D7FE4
:04030E000102032DB8
:0A033700AC031202BFAF0402027B08
:060244008B118A128913E0
:10024A001202BFE4FDAB11AA12A9138D82758300B5
:0C025A0012000EFF600612027B0D80E90E
:010266002275
:0C0211007F0AEA24FFFDE434FFFC7E00BD
:08021D008E168F178C188D1945
:100225007F017E00E4FBEBC39519E5186480F87443
:0E0235008098500AAC16AD1712003B0B80E803
:010243002298
:0402A2008A138B141C
:1002A6001202BFAA15EAD39400400D120211AC1334
:0802B600AD141202671A80ED7D
:0102BE00221D
:100166001202BFC3EA64809480400B7F2B12027B8D
:100176008A1F8B20800E7F2D12027BC3E49BF52005
:10018600E49AF51FAA1EEAD39400400D120211ACA0
:090196001FAD201202671A80ED72
:01019F00223D
:0401A0008A238B24FF
:1001A4001202BFAA25EAD3940040297F1012021339
:1001B400AC23AD24CFCDCFCECCCE12004DEF540F17
:1001C400FEC3940AEE5004243080022437FF120246
:0401D4007B1A80D141
:0101D8002204
:0401D9008A288B29BC
:1001DD001202BFAA2AEAD394004028EA24FFFDE4C4
:1001ED0034FFFC7F027E0012021DAC28AD29CFCD5D
:1001FD00CFCECCCE12004DEF54012430FF12027B36
:03020D001A80D282
:0102100022CB
:03000000020321D7
:0C032100787FE4F6D8FD75812A02010BFC
:10000E00BB010CE58229F582E5833AF583E02250A7
:10001E0006E92582F8E622BBFE06E92582F8E222F1
:0D002E00E58229F582E5833AF583E493220B
:10003B00EF8DF0A4A8F0CF8CF0A428CE8DF0A42ED9
:02004B00FE2293
:10004D00BC000BBE0029EF8DF084FFADF022E4CC97
:10005D00F875F008EF2FFFEE33FEEC33FCEE9DEC60
:10006D00984005FCEE9DFE0FD5F0E9E4CEFD22EDA6
:10007D00F8F5F0EE8420D21CFEADF075F008EF2FF0
:10008D00FFED33FD4007985006D5F0F222C398FDE1
:05009D000FD5F0EA227E
:00000001FF
