:10063D003A30303A30303A303000636C6F636B00D3
:10064D00323020203A20203A0053756E004D6F6EE7
:10065D0000547565005765640054687500467269ED
:05066D00005361740060
:10000E001207451207037BFF7A06793D7D067F02B4
:10001E001206A57BFF7A0679477D017F021206A59F
:10002E007BFF7A06794D7D017F011206A5E4F50A64
:10003E00751101750E01750C01E50E2401FFE433F7
:10004E00FE7C007D1A1204947D0A1204FBE5111346
:10005E0013543F2511FDE433CD2FFFED3EFE7C0002
:10006E00EF250CFFEC3ECF24DCCF34FFFE7D0712D4
:10007E0004A68D10E510B407005059900090F82892
:10008E0028730200A50200AD0200B50200BD0200F9
:10009E00C50200CD0200D57BFF7A067956802E7BF5
:1000AE00FF7A06795A80267BFF7A06795E801E7B60
:1000BE00FF7A06796280167BFF7A067966800E7B60
:1000CE00FF7A06796A80067BFF7A06796E7D0E7F4F
:1000DE00011206A5E50FFB7A007517027D0D7F0252
:1000EE001206E6E50BFB7A007517027D0A7F0212F7
:1000FE0006E6E50DFB7A007517027D077F021206F4
:10010E00E6E50CFB7A007517027D097F011206E603
:10011E00E50EFB7A007517027D067F011206E6E5F5
:10012E0011FB7A007517027D037F011206E612029B
:10013E000E8F12E50A64016004E50A705BE512B4E5
:10014E0001020511E512B40202050EE512B4030216
:10015E00050CE512B40402050DE512B40502050BFB
:10016E00E512B40602050FE50AC39403402AE51210
:10017E00B401021511E512B40202150EE512B40314
:10018E0002150CE512B40402150DE512B4050215A4
:10019E000BE512B40602150FE512B40F107511011E
:1001AE00750E01750C01E4F50DF50BF50FE512B4A6
:1001BE00100C050AE50AC394034003E4F50AE50FA3
:1001CE00C3943C4005E4F50F050BE50BC3943C408E
:1001DE0005E4F50B050DE50DC394184005E4F50D8A
:1001EE00050CE50CD3941E4005750C01050EE50EAD
:1001FE00D3940C5003020047750E010511020047FF
:03000B0002039756
:04039700C0E0C0D032
:10039B00758A66758CFC0509E50970020508C3941E
:1003AB00E8E508940350030204537508007509002F
:1003BB00E50A7041F508F509050FE50F943C40057A
:1003CB00050B750F00E50BC3943C4005050D750B34
:1003DB0000E50DC394184005050C750D00E50CD315
:1003EB00941E4005050B750C01E50EC3940C4005DE
:1003FB000511750E01E50AB40106750800750900B3
:10040B00E50A64027042F508F509E50F7038750FBF
:10041B003BE50B702D750B3BE50D7022750D17E54C
:10042B000CD394015014750C1EE50E9401500775F6
:10043B000E0C15118012150E800E150C800A150D61
:10044B008006150B8002150FE50F30E006C2A1D216
:07045B00A28004D2A1C2A29D
:05046200D0D0D0E03213
:100703005389F0438901758A66758CFCC28DD2A921
:07071300D2AFC2B9D28C2263
:10073000EF1FAC0670011E4C600A7D027CC7DCFE18
:04074000DDFC80EC70
:010744002292
:06075900C2A58F80D2A7AB
:08075F007F027EEFDEFEDFFCED
:01076700226F
:0A077400C2A6120759C2A702075FD0
:1006C800CFCDCFCECCCE1204A67C007D0A1204A6D4
:0406D800ED2430FFDE
:0A06DC00D2A6120759C2A702075F59
:10071A00AE07BE0104ED148006BE0209ED243F4473
:06072A0080FF120774229B
:100745007F381207747F0C1207747F061207747FB7
:040755000102077422
:0A077E00AC0312071AAF040206DCF8
:0606A5008B138A14891575
:1006AB0012071AE4FDAB13AA14A9158D82758300EA
:0C06BB00120467FF60061206DC0D80E9E7
:0106C7002210
:0C0672007F0AEA24FFFDE434FFFC7E0058
:08067E008E188F198C1A8D1BD8
:100686007F017E00E4FBEBC3951BE51A6480F874DA
:0E0696008098500AAC18AD191204940B80E83D
:0106A4002233
:0406E6008A158B16D0
:1006EA0012071AAA17EAD39400400D120672AC1523
:0806FA00AD161206C81A80EDCE
:0107020022D4
:1005920012071AC3EA64809480400B7F2B1206DC98
:1005A2008A218B22800E7F2D1206DCC3E49BF5226A
:1005B200E49AF521AA20EAD39400400D120672AC07
:0905C20021AD221206C81A80EDD9
:0105CB00220D
:0405CC008A258B26CB
:1005D00012071AAA27EAD3940040297F1012067442
:1005E000AC25AD26CFCDCFCECCCE1204A6EF540F86
:1005F000FEC3940AEE5004243080022437FF120612
:04060000DC1A80D1AF
:0106040022D3
:040605008A2A8B2B87
:1006090012071AAA2CEAD394004028EA24FFFDE431
:1006190034FFFC7F027E0012067EAC2AAD2BCFCDC3
:10062900CFCECCCE1204A6EF54012430FF1206DC43
:030639001A80D252
:01063C00229B
:10053100E4F52D20B1137F14FE12073030B1FD7F99
:10054100147E00120730752D0120B0147F147E0037
:1005510012073030B0FD7F147E00120730752D0276
:1005610020B2147F147E0012073030B2FD7F147E5A
:1005710000120730752D0320B3147F147E0012077B
:100581003030B3FD7F147E00120730752D04AF2D7E
:010591002247
:10020E00E4F5137590FFC2932097137F14FE120727
:10021E00303097FD7F147E00120730751301209643
:10022E00147F147E001207303096FD7F147E00126C
:10023E0007307513052095147F147E001207303099
:10024E0095FD7F147E001207307513092094147FDC
:10025E00147E001207303094FD7F147E001207309A
:10026E0075130D7590FFC2922097147F147E0012A5
:10027E0007303097FD7F147E001207307513022071
:10028E0096147F147E001207303096FD7F147E0088
:10029E001207307513062095147F147E0012073056
:1002AE003095FD7F147E0012073075130A209414CA
:1002BE007F147E001207303094FD7F147E001207EB
:1002CE003075130E7590FFC2912097147F147E0027
:1002DE001207303097FD7F147E001207307513031E
:1002EE002096147F147E001207303096FD7F147E08
:1002FE00001207307513072095147F147E00120725
:10030E00303095FD7F147E0012073075130B20944C
:10031E00147F147E001207303094FD7F147E00127D
:10032E00073075130F7590FFC2902097147F147EBF
:10033E00001207303097FD7F147E001207307513C0
:10034E00042096147F147E001207303096FD7F1421
:10035E007E001207307513082095147F147E00124C
:10036E0007303095FD7F147E0012073075130C2078
:10037E0094147F147E001207303094FD7F147E009B
:08038E00120730751310AF13C4
:010396002244
:030000000207688C
:0C076800787FE4F6D8FD75812D02000EAC
:10046700BB010CE58229F582E5833AF583E022504A
:1004770006E92582F8E622BBFE06E92582F8E22294
:0D048700E58229F582E5833AF583E49322AE
:10049400EF8DF0A4A8F0CF8CF0A428CE8DF0A42E7C
:0204A400FE2236
:1004A600BC000BBE0029EF8DF084FFADF022E4CC3A
:1004B600F875F008EF2FFFEE33FEEC33FCEE9DEC03
:1004C600984005FCEE9DFE0FD5F0E9E4CEFD22ED49
:1004D600F8F5F0EE8420D21CFEADF075F008EF2F93
:1004E600FFED33FD4007985006D5F0F222C398FD84
:0504F6000FD5F0EA2221
:1004FB00C2D5EC30E709B2D5E4C39DFDE49CFCEE1C
:10050B0030E715B2D5E4C39FFFE49EFE1204A6C3E9
:10051B00E49DFDE49CFC80031204A630D507C3E4E4
:06052B009FFFE49EFE228A
:00000001FF
